:020000040800F2
:1000000058270124E504000885BE0008DDA8000883
:10001000D9BC0008712D0008BDEB000800000000ED
:10002000000000000000000000000000250400089F
:1000300025350008000000008104000879CA000886
:10004000FF040008FF040008FF040008FF04000884
:10005000FF040008FF040008FF040008FF04000874
:10006000FF040008FF040008FF040008112F000827
:10007000212F0008312F0008412F0008512F0008C0
:10008000FF040008FF040008FF040008FF04000844
:10009000FF040008FF040008FF040008FF04000834
:1000A000FF040008FF040008FF040008FF04000824
:1000B000FF040008FF040008FF040008FF04000814
:1000C000FF040008FF040008FF040008FF04000804
:1000D000FF0400089DEB0008ADEB0008FF040008DA
:1000E000FF040008FF04000800000000FF040008EF
:1000F000FF040008FF040008FF040008FF040008D4
:10010000FF040008FF040008FF040008FF040008C3
:10011000BDD60008FF040008FF040008FF04000823
:10012000FF040008FF040008FF040008FF040008A3
:10013000FF040008FF040008FF040008FF04000893
:1001400000000000000000000000000000000000AF
:10015000FF040008FF040008FF040008FF04000873
:10016000FF040008FF040008FF040008FF04000863
:10017000FF040008FF040008FF040008000000005E
:10018000FF040008FF040008FF040008FF04000843
:10019000FF040008FF040008FF040008FF04000833
:1001A00035AF0008FF040008FF040008FF04000842
:1001B000FF040008FF040008FF040008FF04000813
:1001C000FF040008FF040008FF040008FF04000803
:1001D000FF040008FF040008FF040008FF040008F3
:1001E000FF040008FF040008FF040008FF040008E3
:1001F000FF040008FF040008FF040008FF040008D3
:10020000FF040008FF040008FF040008FF040008C2
:10021000FF040008FF04000819CD0008FF040008CF
:10022000FF040008FF040008FF04000800000000AD
:10023000FF040008FF04000800000000FF0400089D
:10024000FF040008FF040008FF040008FF04000882
:10025000FF040008FF040008FF040008FF04000872
:10026000FF040008FF040008FF040008FF04000862
:10027000FF040008FF040008FF040008000000005D
:10028000FF040008FF040008FF040008000000004D
:1002900000000000FF04000800F002F800F0B2F8CF
:1002A0000AA090E8000C82448344AAF10107DA45D1
:1002B00001D100F0A7F8AFF2090EBAE80F0013F071
:1002C000010F18BFFB1A43F001031847001905007E
:1002D000201905000A444FF0000C10F8013B13F000
:1002E000070408BF10F8014B1D1108BF10F8015B8F
:1002F000641E05D010F8016B641E01F8016BF9D182
:1003000013F0080F1EBF10F8014BAD1C0C1B09D1D8
:100310006D1E58BF01F801CBFAD505E014F8016B4A
:1003200001F8016B6D1EF9D59142D6D370470000DC
:100330000023002400250026103A28BF78C1FBD8EE
:10034000520728BF30C148BF0B6070476E2900F0CC
:100350009684702900F0EF8766293FF04987652968
:100360003FF0468767293FF0438761293FF0428786
:1003700003681B0A28BF41F08001692900F08C81C5
:10038000642900F08981752900F086816F2900F0C9
:100390007C87782900F0BB87E92900F01787E429DA
:1003A00000F01487F52900F01187EF2900F0798714
:1003B000F82900F0BA870368DB0928BF41F0800103
:1003C000632901F07982732901F07E82E32901F02B
:1003D0008982F32901F08E82002070471FB53FF01B
:1003E000FFFE01F04FF80400002000213FF0DAFE8C
:1003F000401C6060002000213FF0BEFEE0601FBD99
:1004000010B510BD01F07DFB1146FFF7E7FF37F097
:1004100053FF01F025FE03B4FFF7F2FF03BC01F028
:100420001FF800002C4B19680868B0E8F04F80F303
:100430000988BFF36F8F4FF0000080F31188704779
:100440000000000008480068006880F308884FF04A
:10045000000080F3148862B661B6BFF34F8FBFF31C
:100460006F8F00DF00BF00BF08ED00E0DFF80C0079
:10047000016841F470010160704700BF88ED00E041
:10048000EFF30980BFF36F8F134B1A681EF0100F44
:1004900008BF20ED108A20E9F04F106009B44FF03A
:1004A000500080F31188BFF34F8FBFF36F8F3EF082
:1004B0005BFE4FF0000080F3118809BC19680868E2
:1004C000B0E8F04F1EF0100F08BFB0EC108A80F3B8
:1004D0000988BFF36F8F704718030024EFF305807E
:1004E000704700000948804709480047FEE7FEE7DB
:1004F000FEE7FEE7FEE7FEE7FEE7FEE7FEE7FEE7D4
:1005000004480549054A064B704700001DCC000809
:1005100099020008581B012458270124581F012460
:10052000581F012453EA020C00F069802DE9F04BBA
:100530004FF00006002B1FBFB3FA83F503FA05F452
:1005400024FA05F65E4012BF1643B2FA82F502FAAB
:1005500005F4C5F120051EBF22FA05FC44EA0C048F
:10056000203556EA044C4FEA144418BF641C4FF07F
:1005700000084FF00009904271EB030C39D30029B9
:1005800019BFB1FA81F701FA07F6B0FA80F700FA5D
:1005900007F6C7F120071EBF20FA07FC46EA0C0643
:1005A0002037B6FBF4FCA7EB0507103F07F01F0B45
:1005B000CBF120060CFA0BFB2CFA06F644BFB3462F
:1005C0000026202FA4BF5E464FF0000B5BEA060C0E
:1005D00008BF4FF0010B19EB0B09ABFB027C48EB9A
:1005E0000608C01B06FB02CC0BFB03CC71EB0C0115
:1005F000C1E70B46024641464846BDE8F08B13B5BD
:100600004FF000004FF00001AFF30080BDE81C4048
:10061000704700007CB51D4616460C00009001D0C6
:100620002044401E074B7B442A46694601903046D1
:1006300000F04DFD05461CB10020694600F05AFD52
:1006400028467CBDD50A000070B50446856900685F
:10065000C10601D5302600E02026C00707D070BDB6
:10066000D4E9012130469047206A401C20626D1E6B
:10067000F6D570BD70B5044685690078C00707D10E
:1006800070BDD4E9012120209047206A401C2062DF
:100690006D1EF6D570BD00002DE9F0410646002420
:1006A00010687529314616A510D000F054FA0028BC
:1006B00002DA404213A507E031688A0701D512A586
:1006C00002E0490704D511A5012401E000F04CFA2D
:1006D00000210A2206F1240709E0B0FBF2FCB0FB7E
:1006E000F2F302FB1C00303078541846491C0028F5
:1006F000F3D123462A463046BDE8F04100F066BA01
:10070000000000002D0000002B0000002000000071
:100710002DE9F05F894604464FF0000ADFF874B116
:10072000FB44C0F820A02046E1688847002874D028
:10073000252806D0D4E901219047206A401C206278
:10074000F1E700265F462046E168884720280546F5
:1007500007DB312D05D2781910F8200C08B10643BB
:10076000F1E7B00701D526F00406C4F81CA0002765
:10077000C4F818A02A2D09D028460FF09FFB38B3E3
:1007800004EB8708303DC8F8185019E059F8041BED
:10079000204604EB87029161E1688847012F0546F6
:1007A00018D1E069002820DA26F020061DE0D8F8EC
:1007B000180000EB800005EB40003038C8F8180046
:1007C0002046E168884705460FF078FB0028EED107
:1007D000012F0AD02E2D08D12046E16888477F1CC2
:1007E0000546022F46F02006C4DBA069002803DA84
:1007F000404246F00106A061F00701D026F0100645
:100800006C2D0BD0682D09D04C2D39D06A2D35D0E8
:10081000742D35D07A2D33D016E038E0E1682F46BC
:1008200020468847B842054609D16C2F26D04FF4A0
:100830008060E168064320468847054604E06C2F47
:100840001AD04FF4807006430DB3A5F1410019286A
:1008500002D8203546F400664A46294620462660DE
:100860004E46FFF773FD80B101280BD0F61D26F030
:10087000070000F1080956E74020E4E78020D8E7A8
:100880000020D6E706F104094DE7284652E7206A22
:10089000BDE8F09FC40C050070B5064600F04CF9A9
:1008A0000468054630460A22002100F0A1FD2C60B4
:1008B00070BD40EA0103024630B59B0710D14FF0EE
:1008C000013400E008C208C91D1B9D4315EAC41F7E
:1008D000F8D013F0FF0102F8011B0DD01B0AF8E756
:1008E00011F8013B002B02F8013B05D011F8013B48
:1008F000002B02F8013BF3D130BD10B5431C02E0E0
:1009000010F8011B71B18107FAD14FF0013202C812
:100910008C1A8C4314EAC211F9D0C01A0A0603D00B
:10092000C01E10BDC01A10BD0A0401D0801E10BD2B
:100930000902FCD0401E10BD032A40F2308010F0A6
:10094000030C00F0158011F8013BBCF1020F62446A
:1009500098BF11F801CB00F8013B38BF11F8013BFB
:10096000A2F1040298BF00F801CB38BF00F8013BA8
:1009700011F0030300F02580083AC0F0088051F818
:10098000043B083A51F804CBA0E80810F5E7121D23
:100990005CBF51F8043B40F8043BAFF30080D20742
:1009A00024BF11F8013B11F801CB48BF11F8012B0E
:1009B00024BF00F8013B00F801CB48BF00F8012B31
:1009C000704710B5203AC0F00B80B1E81850203ABB
:1009D000A0E81850B1E81850A0E81850BFF4F5AFDF
:1009E0005FEA027C24BFB1E81850A0E8185044BF69
:1009F00018C918C0BDE810405FEA827C24BF51F8D6
:100A0000043B40F8043B08BF7047D20728BF31F8C9
:100A1000023B48BF11F8012B28BF20F8023B48BF1A
:100A200000F8012B704702F0FF0343EA032242EA79
:100A3000024200F002B84FF000020429C0F0128018
:100A400010F0030C00F01B80CCF1040CBCF1020F81
:100A500018BF00F8012BA8BF20F8022BA1EB0C0156
:100A600000F00DB85FEAC17C24BF00F8012B00F84C
:100A7000012B48BF00F8012B70474FF0000200B572
:100A8000134694469646203922BFA0E80C50A0E8B1
:100A90000C50B1F12001BFF4F7AF090728BFA0E85F
:100AA0000C5048BF0CC05DF804EB890028BF40F82B
:100AB000042B08BF704748BF20F8022B11F0804F6D
:100AC00018BF00F8012B70474FF0013C50F8042B81
:100AD00051F8043B9A4215D1A2EB0C03934313EA5D
:100AE000CC130BD150F8042B51F8043B9A4209D196
:100AF000A2EB0C03934313EACC13E7D04FF00000B2
:100B0000704700BFD01A01BAB1FA81F101F01801A3
:100B100022FA01F0CB40C1F12001DBB2C0B2C01A11
:100B20002CFA01F3D11A914311EAC311E6D17047AF
:100B3000704770477047000000487047F81A01245A
:100B400010B5FFF7F9FF006810BD10B50446FFF7B8
:100B5000F3FF046010BD09684A0501D540B2704733
:100B6000C905FCD500B2704709684A0501D5C0B275
:100B70007047C905FCD580B2704770B50C46054674
:100B8000012A05D02878800600D5EA69002302E012
:100B9000012305E05B1C934202D2E05C0028F9D1FE
:100BA000A869E618C01AA861286A1844286228466D
:100BB000FFF74AFD04E0D5E9012114F8010B904745
:100BC000B442F8D32846FFF755FD70BD2DE9F04734
:100BD0000D4699469246044600F1240801688806AD
:100BE00004D5E06921F01001216000E00120A84255
:100BF00001DD471B00E00027A1697A1902EB09001B
:100C0000081AA0612078C00602D42046FFF71CFD18
:100C1000002608E0D4E901211AF806009047206A6E
:100C2000401C761C20624E45F4DB2078C0060AD5B5
:100C30002046FFF709FD06E0D4E901213020904766
:100C4000206A401C2062381EA7F10107F4DC07E08F
:100C5000D4E9012118F805009047206A401C206261
:100C6000281EA5F10105F3DC2046FFF703FD2078DF
:100C7000000602D50220BDE8F0870120FBE71168DD
:100C80000268006A530501D508700AE0D30501D552
:100C9000088006E0130603D5C217C1E9000200E090
:100CA00008600120704770472DE9FF4F0C461E4633
:100CB0004FF0FF378BB0D2E90001DDF860800A9079
:100CC0008A46C1F30A5505B93D46002108464FF052
:100CD0000000BAF1000F00F4400005DA00EB8000DC
:100CE0004FF4400101EA50004FEA9059B9F1010F69
:100CF00000DDB9460A9850EA4A000ED044F610507A
:100D0000A5F2FF3545432F14B8F1000F1ED07542F0
:100D1000291E1EDDC9F100021CE0B8F1010F4FF0E1
:100D2000000001D0302103E0F24305E02154401CD3
:100D3000B042FBDB30460022002121540B99C1F860
:100D40000880C1E900200FB0BDE8F08FBD1B6D1C0D
:100D5000DEE74A4600DA694206A800F03FFE06AB2D
:100D600093E8070003AB83E8070050460A9901F0B7
:100D7000BEFB8DE80700A0F500501F3800900398D7
:100D8000002D0ADD42F21F014A460844002303A950
:100D90000390684601F06AFE09E0A0F500504A465B
:100DA0001F38002303A90390684601F089FE8DE8EF
:100DB00007000004000C03D04FF0FF30410800E0B2
:100DC0001046B8F1000F03D00022009215461EE035
:100DD000751E05D400F05AFB303262556D1EF9D5F0
:100DE000B3460122084302D000227F1C04E0207891
:100DF000302801D100227F1E002A099784D01DE0EF
:100E0000112D07DA00F042FB303262556D1C50EABA
:100E10000102F5D1084302D00098C8B10EE00021CC
:100E2000681E05E0235C625C63542254401E491C2A
:100E30008142F7DBAB46A81B401E0990002004F856
:100E40000B000B98099AC0F80880C0E9002B7AE7DC
:100E500011264FF0000857E72DE9F04F8846044669
:100E6000D21D22F0070191B0D1E90001CDE90A01BC
:100E70000DF0A6FE02460B98C00F01D02D2007E012
:100E80002068810701D52B2002E0202101EAC00063
:100E9000032A099001D0072A05DB03464146204674
:100EA00000F0C0FC0BE12078800601D5E06900E08D
:100EB0000620B8F1650F814606D0B8F1660F18D04C
:100EC000B8F1670F70D131E00020B9F1110F009037
:100ED00001DB112301E009F101030AAA01A90CA811
:100EE000FFF7E2FEDDE90C70002609F101058346FB
:100EF00047E001204B4600904FF000470AAA01A9A5
:100F00000CA8FFF7D1FEDDE90DB00C995D46002677
:100F100010B909F101000D18B9EB050003D4C0F1B7
:100F2000FF3609F10105A5EB09002BE0B9F1010F2E
:100F300001DA4FF001090020B9F1110F0090484685
:100F400001DD112300E003460AAA01A90CA8FFF75E
:100F5000ABFEDDE90C704D46002683462078000785
:100F60000AD4AB4500DA5D4601A8012D04DD411924
:100F700011F8011C302907D04F4502DA17F1040F90
:100F800004DA012082460FE06D1EEEE7002F02DC3E
:100F9000ED1B3E4403E0781CA84200DD7D1CB81B1D
:100FA00000F1010A4FF000472078000703D4AA455A
:100FB00001DB4FF0FF3A0021B7F1004F0DF143087C
:100FC0008DF8431024D002202B23002F01DA7F421A
:100FD0002D230A21021EA0F1010000DC5FB197FB66
:100FE000F1FC97FBF1F201FB1C7C17460CF1300C75
:100FF00008F801CDEEE7A8F101000370218809058A
:1010000001D5452100E06521A0F1010800F8011C8F
:1010100009980FA9A1EB0807FF1D00B10120411994
:1010200001EBEA70A1693844081A401EA0612078DB
:10103000C00602D42046FFF707FB099828B1D4E97F
:1010400001219047206A401C20622078C00622D5EA
:101050002046FFF7F9FA1EE0002E04DBB34502DD5F
:1010600001A8805D00E03020D4E901219047206A8A
:10107000401C2062761CAAF101005FEA000A0AD136
:1010800000F000FAC0680168405CD4E90121904793
:10109000206A401C2062281EA5F10105DCDC07E067
:1010A000D4E9012118F8010B9047206A401C206206
:1010B000381EA7F10107F3DC2046FFF7DBFA032017
:1010C00011B041E601694A1C02610878704700B519
:1010D0008FB0CDE901310021059105497944CDE971
:1010E000031011466846FFF713FB0FB000BD000068
:1010F000E5FFFFFF0A6802F8010B0A607047D1E9BB
:1011000000239A4202D2531C0B60107070470000FB
:101110002DE9FF5F15468A460446DFF8AC80F844A7
:101120000027D8E900103E46CDE9001010E03AF85B
:1011300016106A4602A800F0C3FC411C07D02178B3
:10114000890603D5E269391891420DD80744761C07
:101150002078800602D5E069B84205DDAE42E6DBC4
:101160003AF816000028E2D1A069C01BA061204611
:10117000FFF76AFAD8E90010CDE90010002017E067
:101180003AF818106A4602A800F09AFCB0F1FF3F46
:1011900081460BD000250DF1080B05E0D4E90121B3
:1011A0001BF8050090476D1C4D45F7D308F1010071
:1011B000B0428046E4DB206A384420622046FFF7D4
:1011C00059FABDE8FF9F0000DA0205002DE9F04161
:1011D0008046D21D22F007020025D2E90002F5293F
:1011E00015A614D0011E72F1000106DA0023D0EB1F
:1011F000030063EB020211A608E0D8F800108B0789
:1012000001D50FA602E0490701D50EA6012511461A
:10121000002408F1240704E000F038F930323A5590
:10122000641C50EA0102F7D12B4632462146404663
:10123000BDE8F041FFF7CABC000000002D0000002F
:101240002B0000002000000030B4002100F1240435
:1012500008E002F00705D208303542EA4372DB08A5
:101260006554491C52EA0305F3D10468002310A217
:10127000250707D5A40600D421B1C46901230DA216
:10128000641EC46130BCFFF7A1BC10B50446214602
:101290001068FFF769FC02462046BDE810400023B5
:1012A000D2E7D21D22F00701D1E90023CCE70000EC
:1012B0000000000030000000F0B40D460188090570
:1012C00002D5214C7C4402E01F4C7C440E340021AA
:1012D00000F1240608E002F00F071209E75D42EA78
:1012E00003721B097754491C52EA0307F3D10278B1
:1012F0000023120704D5702D06D009B10223113442
:101300002246F0BCFFF762BC01231034F8E770B549
:1013100004460D4621461068FFF726FC0246294682
:101320002046BDE870400023C6E7D21D22F0070327
:10133000D3E90023C0E70368126843F02003036089
:101340000823C3610023B7E73C0105000FB4002365
:1013500000B589B00CA900910B99CB60214B7B445F
:101360000693214B7B44079304236FF00042CDE9A1
:1013700001321E4A7A446B460892024600203EF033
:101380009BFF09B05DF814FB70B506464FF0FF30C7
:1013900015460C46324686B00091CDE901016946FA
:1013A0000020049004A8FFF7D1FF024604982118FA
:1013B00025B108B1084600E02046286004980028BE
:1013C0000DD0002A02DD0098884208D03246081B62
:1013D00069460094CDE9010404A8FFF7B7FF06B001
:1013E00070BD00009B050000B30500009F010000D8
:1013F0002DE9F04791460F4680460446002614F832
:10140000015B2DB100F036F80068405DC007F6D1F1
:101410002B2D02D02D2D18D0641E4A463946204669
:1014200000F08CFA27B13968A14201D1C7F80080D9
:101430004FF0020471050BD54042002803DDFFF791
:101440007BFB0460A007BDE8F08746F48066E4E714
:101450000028F8DAFFF770FB04606FF00040F2E755
:1014600001491820ABBEFEE7260002000048704785
:10147000F81A012410B500F005F8001D10BD00BFDA
:1014800025ED030000487047181B012430B5B0F16A
:101490000A024FEA900E71F100034EEA817EB0EB32
:1014A0000E0061EB91014FEA101E4EEA017E10EB37
:1014B0000E0041EB11114FEA102E4EEA016E10EBB7
:1014C0000E0041EB11214FEA104E4EEA014E10EB97
:1014D0000E0041EB1141401841F100014FEAD000EC
:1014E00040EA41704FEAD10110EB80054FEA8104D8
:1014F00044EA907444EB01046D1944EB0404521B5C
:10150000A3414FF0000348BF0A3200D530BD401C54
:1015100041F1000130BD10B50446FFF7ABFF006894
:10152000005D00F0010010BD2DE9F04F04460D46AE
:10153000D21D22F0070089B0D0E90097484639460D
:101540000DF03EFB0246F80F01D02D2307E0206886
:10155000810701D52B2302E0202101EAC0038DF889
:1015600020300BB1012000E00020032A824601D088
:10157000072A04DB2946204600F054F93FE1207891
:10158000800601D40D2500E0E569C7F30A560D2D4C
:1015900049DA00214FEA175B08464FF00000002FA0
:1015A00000F4400007DA00EB80004FF4400100EB4C
:1015B000D07001EA60008115012901DD4FF0FF3193
:1015C00000224FEA850CBCF1180F06D31346ACF18C
:1015D00018004FF08052C24003E04FF4801323FA0A
:1015E0000CF30CF10C0CBCF1200F04D3ACF1200C6B
:1015F00009FA0CF001E007FA0CF000294FF000485E
:1016000001DD18B90FE00ED140450CD319EB0209EA
:101610005F4121B9404502D19F4329EA0209BBEB52
:10162000175F00D0761C2088000502D57B487844DF
:1016300002E07A487844193808AA302302F80A30C0
:10164000037C0AF10101002E0AF1020A53546A4692
:1016500002DC4FF0300101E04FF031014FF00108A2
:101660008DF8001002D0A6F2FF3603E059EA4701D8
:1016700000D06B4E002D02DC2178090704D54FF015
:1016800002082E218DF80110C44600210BE0C7F39B
:1016900003433F01C35C491C6D1E02F80830052955
:1016A00008F1010801DA002DF1DC00210CE000EB6B
:1016B0001973491C1B786D1E082902F808304FEA7F
:1016C000091908F1010801DA002DF0DC21688B0608
:1016D00002D516E0A8F10108E04505DD02EB08039C
:1016E00013F8013C302BF5D0B8F1000F09DD02EB07
:1016F000080313F8013C2E2B03D1090701D4A8F1EC
:101700000108002D05DD3E2102F808106D1E08F1CC
:101710000108407C002E02F8080008F1010804DAF4
:101720002D20764202F8080002E02B2002F8080083
:101730000A214FF47A70864208F101080BDB96FB10
:10174000F0F3303302F8083096FBF0F308F10108AB
:1017500000FB136601E0642E0CDB642096FBF0F3C3
:10176000303302F8083096FBF0F308F1010800FB73
:10177000136601E00A2E06DB96FBF1F0303002F82A
:10178000080008F1010896FBF1F001FB1060303011
:1017900002F80800A16908F1010808EB050202EB54
:1017A0000A00081AA0612078C00602D42046FEF77D
:1017B0004BFF216A08AE01EB0A00206204E0D4E985
:1017C000012116F8010B9047BAF1010AF7D22078EF
:1017D000C00602D52046FEF737FF6E4609E016F830
:1017E000010B3E280FD0D4E901219047206A401C0C
:1017F0002062B8F10108F2D22046FEF73BFF09B0A3
:101800000320BDE8F08F206A2844206203E0D4E979
:101810000121302090476D1EEBD3F8E7F1FF040063
:1018200002FCFFFF2DE9F0411F4604460326016834
:10183000072A01F4006004DB08B116A505E016A52F
:1018400003E008B115A500E015A521F01000206007
:10185000A069C01EA0610FB1401EA0612046FEF726
:10186000F3FE4FB1D4E9012138469047206A401C6D
:101870002062C01C206206E0206AFAE7D4E9012158
:1018800015F8010B9047761EF8D22046FEF7F2FEBF
:10189000BDE8F0814E414E006E616E00494E46003B
:1018A000696E660010B5436913B1AFF3008001E0C3
:1018B000FFF763F9012010BD127800F124010A70CE
:1018C00000224A700122EDE711684FF0FF32E9E78C
:1018D00010B5436913B1AFF3008001E0FFF718FCC6
:1018E000012010BD128800F1240182840022C284EC
:1018F0000122EDE711684FF0FF32E9E7426842B19B
:10190000016811F8013B23B1521EC0E900121846CC
:1019100070470121C160881E704742685AB1C36890
:10192000016843B983688B4205D0491E521CC0E947
:101930000012002070474FF0FF3070472DE9F05F34
:10194000824615468B4600270AF10104B946007805
:10195000302801D09DB113E014F8010B012778283D
:1019600003D0582801D045B10AE00DB1102D07D1A0
:10197000002714F8010B102502E0082500E00A25D5
:101980000026B0460EE005FB080005FB06F1012726
:101990001FFA80F801EB1046B6F5803F00D3B94638
:1019A00014F8010B294600F0D1F80028EBDABBF15E
:1019B000000F05D00FB1641E00E05446CBF8004084
:1019C000B9F1000F06D0FFF7B7F802210160C81E79
:1019D000BDE8F09F48EA0640FAE700002DE9F0472D
:1019E000814616468AB0354878440DC88DE80D000A
:1019F00032487844801C03AC0DC884E80D0041F6E1
:101A00009B300844372190FBF1F290FBF1F5A5F1F2
:101A1000800501FB12041B3C02D56442012000E05A
:101A20000020DFF898A080460027FA44AAF1BE0AF9
:101A30000EE0E0070AD03246684607EB4701012373
:101A40000AEB810101F03CF88DE8070064107F1C6F
:101A5000002CEED1194F7F44AE3F19E0E80715D0B6
:101A600007EB04100DF1180A90E80E008AE80E004A
:101A7000C068F04201D1981908903246012306A9A6
:101A800003A801F01DF803AB83E807006D10641C88
:101A9000002DE3D14FF0010332466946B8F1000F43
:101AA00003A802D000F0E2FF01E001F009F8C9E963
:101AB0000001C9F808200AB0BDE8F087C8FC04009E
:101AC00070B516460C460546FFF7D4FC036893F83C
:101AD0000101012806D0FF2C0FD8185D68B1012044
:101AE0002C7070BDD3F807013246214603F207136C
:101AF00003442846BDE8704018474FF0FF3070BDE2
:101B000070477546FFF7B2FCAE460500694653467E
:101B100020F00700854618B020B5FEF7F1FCBDE8BF
:101B200020404FF000064FF000074FF000084FF044
:101B3000000B21F00701AC46ACE8C009ACE8C009D5
:101B4000ACE8C009ACE8C0098D4670473A2800D21D
:101B5000303820F02002412A01D3A2F13700884218
:101B600001D34FF0FF3070472DE9FF4F06468BB091
:101B70000878FF2806D0491C2D2805D000244FF0F6
:101B8000000908E000200CE00124F8E709EB8903D4
:101B9000491C00EB43090878FF28F7D114B1C9F1BB
:101BA00000008146107800252C46AA4629462D289B
:101BB00001D02B2804D1521C2D2813D0002082469E
:101BC0008B461078FF280FD04FF0000C0A21521CD2
:101BD000A5FB017804FB018105FB0C11C5194BEB3A
:101BE0000104EEE70120EAE7002108464FF000007B
:101BF000BAF1000F02D000EB80004008C0F381571B
:101C0000012F01DD4FF0FF370E9955EA040009EB73
:101C100001080BD04FF0020918F5FA7F16DA4FEAE7
:101C2000CA70002F706008DD012007E04FEACA701B
:101C3000C6E900B00FB0BDE8F08F00203060FEF7BD
:101C40007BFFC0F800901821084616E0B8F5FA7F2F
:101C500018DD002F02DAF748784401E0F6487844AE
:101C6000D0E90010C6E9001040EACA707060FEF7C3
:101C700063FFC0F80090142108460FB0BDE8F04F94
:101C80003EF0B3BA002108464FF00000B8F1000161
:101C9000099002DAC7F1000200E03A4601DAC8F121
:101CA000000106A8FFF79AFE06AB93E8070003AB16
:101CB00083E8070044F23E005BEA040100905846C6
:101CC00004D144F21E012C465D460091210C09040A
:101CD000014306D10099240444EA15442D04103927
:101CE000009104F07F41014306D10099240244EAA7
:101CF00015642D020839009104F07041014306D1AA
:101D00000099240144EA15742D01091F009104F083
:101D10004041014306D10099A40044EA9574AD0006
:101D2000891E009104F00041084304D100986D1908
:101D30006441401E00904FF001033A466846B8F1F6
:101D4000000FCDE9014503A902DD00F0CEFE01E060
:101D500000F0A1FEBAF1000F04460D4601D084F058
:101D60000044002108464FF00000099940F2FF7737
:101D7000484010F00C0F07D124F00040284303D056
:101D8000C4F30A50B84212D1FEF7D6FEC0F8009054
:101D9000C4F30A50B8420AD1A8487844D0E90010E8
:101DA000C6E9001004F000410843706042E7C6E94C
:101DB00000543FE72DE9FF4F1F464FF0000A4FF058
:101DC000FF38454691B0D7E90146CDF83CA0FFF772
:101DD00059FBC0680168405C1090B96912986D1C8D
:101DE0008847396A814688470028F6D1B9F1FF3F14
:101DF0000AD0002E24F4D06411DDB9F12B0F08D0E5
:101E0000B9F12D0F0BD102E0404615B013E744F4B1
:101E10008064B96912986D1C8847761E81466005FA
:101E200004A901D52D2000E02B20002E01F1010B8B
:101E30000DF130088DF810003FDDB9F1690F08D0C1
:101E4000B9F1490F05D0B9F16E0F02D0B9F14E0FBB
:101E50001CD13B4601A8009580E85002DDE9121232
:101E60006FF002003EF02CFAC11CCED10EE0B96931
:101E700012986D1C884781461398761E44F40074AE
:101E800005600F98401C002E0F9016DDB9F1300F41
:101E9000EDD0B9F1780F02D0B9F1580F0DD10F98EC
:101EA00001280AD13B46CDE90054DDE91212001F9A
:101EB00002963EF003FAC11CA7D1109989453ED184
:101EC00044F0800406E01399681CAAF1010A44F466
:101ED00000740860B9696D1C1298761E8847302816
:101EE0008146F0D02BE01099894505D1200603D416
:101EF000761E44F0800418E048460DF0DFFF08B37A
:101F0000761E0DF123018B4544F4007408D2A9F12B
:101F100030000BF8010B200607D5AAF1010003E001
:101F2000200602D40AF101008246A00502D51399C9
:101F3000681C0860B96912986D1C88478146002E9C
:101F4000D1DC53E0002E51DDB9F1650F02D0B9F1BB
:101F5000450F4BD1A00549D5B9696D1C1298761E65
:101F600024F440748847002E81460CDD2B2804D0D1
:101F7000B9F12D0F07D144F48074B96912986D1C22
:101F80008847761E8146E00501D52D2100E02B21F2
:101F900008F8011BCDF8008021E0761E0DF1390113
:101FA000884544F400740CD2A9F1300010F0FF0011
:101FB00088F8000002D10099884509D908F1010884
:101FC00006E0E00501D51E4801E042F20F708246AE
:101FD000B96912986D1C8847814613980560002ED8
:101FE00004DD48460DF06AFF0028D6D1F969129841
:101FF0008847FF2053468BF8000088F80000002037
:102000000A900B9004AA0CA90AA8FFF7ADFDA00541
:1020100002D46FF00100F8E614F0240F12D0E007AC
:102020001CD13868DDE90A12031D3B600068C0E975
:10203000001213E098FF04008AFF04004EFE040023
:10204000F1D8FFFF0AA968460DF00AFEE00705D1A6
:102050003868009A011D3960006802602846D4E69D
:1020600010B50446AFF300802046BDE81040FEF7EF
:10207000D2B900002DE9FF4F1F464FF03C0987B051
:102080004FF00042DDE9141001F10108DDF858A01D
:1020900002EA40500390002005908346054604461E
:1020A0000490B969461E08988847AAF1010A02906F
:1020B000BAF1000F3BDD02982E2815D01021FFF752
:1020C00045FD00282EDB4FF0010B0599014317D089
:1020D000B9F1000F0BDB4A46C11700F0F5F90543D3
:1020E0000C43A9F1040905E0012004900BE008B1BC
:1020F00045F0010501200590049820B9361D02E045
:10210000049800B1361FB969089808F1010888479A
:10211000BBF1000FAAF1010A0290C9D00999C1F8D8
:102120000080C5E70298702808D0502806D0F969C9
:1021300008988847BBF1000F14D04FE000200290B0
:102140000120BBF1000F049009D0B969089808F18B
:1021500001088847AAF10109B9F1000F07DCF96904
:10216000089888476FF001000BB0BDE8F08F2B286E
:1021700004D02D280CD14FF0FF300490B969089895
:1021800008F101088847A9F10109B9F1000FE6DD5E
:10219000411CE4D00A21FFF7D9FC0028DFDB0299BB
:1021A00008F1010801EB810100EB41000290B969DF
:1021B000089888470A21FFF7C9FC099AA9F1010983
:1021C000B9F1000FC2F8008001DD0028E7DAF969F3
:1021D000089888470499029800FB016655EA0400B4
:1021E00004D004F04041090002D006E0039898E0D2
:1021F000A40044EA9574AD00B61E04F00041080046
:1022000002D16D196441761E159810F0240F03D089
:102210004FF00B095C4803E04FF028096FF07D0098
:102220008246564507DAAAEB06018944B9F1410F07
:1022300001DD4FF0410901200021A9F1010200F068
:1022400043F9024628400B462140084301D00121B2
:1022500000E00021501E029143F1FF31284021404F
:10226000084301D0012000E000200299834651EA92
:102270000B014FD0002108464FF00000039900F4F5
:10228000400039B100EB80004FF4400100EBD0700A
:1022900001EA60008015012802DD4FF0FF3000E008
:1022A00013D0401C36D0029860B3BBF1000F0CD1A4
:1022B0004A460120002100F007F928402140084348
:1022C00001D0012000E00020E0B101204A460021B9
:1022D00000F0FAF8034640190A4661412D1A8C4174
:1022E00011D3B9F1400F09DD159810F0240F02D079
:1022F000AAF1340603E0AAF1170600E0761C0025D7
:102300004FF0004406E05B1E42F1FF3220EA030575
:1023100021EA0204CAF10100B04206DA1B4903981F
:1023200008430190002000900EE0039AC4F3D321EB
:10233000E80A0A43164940EA44500A433146CDE9C7
:10234000000268460DF040FD159810F0240F0BD0E8
:102350001598C00715D13868DDE90012031D3B60F0
:102360000068C0E900120CE002A869460DF078FC94
:102370001598C00705D13868029A011D39600068B8
:1023800002604046F0E6000002FCFFFF0000F07F24
:102390000000F03F2DE9FF4F92461D4685B04FF0FB
:1023A0000041DDE9124BDDE914727F1E01EA4B505A
:1023B000414940F0FF4940EA0108002122F0200095
:1023C0004928049102D04E2828D04CE03BA0012699
:1023D00007C88DE80700A9690698641C88477F1E16
:1023E000014606D41DF8060018B121F020018142F3
:1023F0000BD0E96906988847032E34D0082E32D0D6
:102400006FF0010009B0BDE8F08F761C032E01D0FB
:10241000082EE0D1601CCAF80000DCE7A969069824
:10242000641C88477F1E2AD420F02000412826D132
:10243000A9690698641C88477F1E20D420F02000DC
:102440004E281CD1A9690698641C88477F1E48F451
:10245000002849F48009CAF8004001D4282806D091
:10246000E969069888475FEACB7012D022E0A96933
:102470000698641C88477F1E01D4002803DAE969A6
:1024800006988847BCE72928F1D1641CCAF80040A7
:10249000E9E71BF0240F07D028680499031D2B607F
:1024A0000068C0E9001805E02868021D2A6000687D
:1024B000C0F800902046A5E70000F07F494E46494D
:1024C0004E49545900000000B2F120030AD5C2F170
:1024D000200301FA02F120FA03F300FA02F041EAC4
:1024E0000301704700FA03F14FF0000070475FEA04
:1024F000400C08BF91F0000F4FEA8C234FEAC12235
:1025000043EA51514FEA1C5018BF00F5F0404FEA22
:10251000300018BF41F000415FEA6C5C00F0298098
:10252000BCF1FF3F08BF40F080407047130C06BF6E
:1025300012044FF0100C4FF0000C130E04BF1202E7
:102540000CF1080C130F04BF12010CF1040C930FD3
:1025500004BF92000CF1020CD30F04BF52000CF127
:10256000010C11464FF00002A0F11F00A0EB0C007F
:10257000704711F0004F08BF704731F000413FF441
:10258000D5AF0B0C06BF09044FF0100C4FF0000C38
:102590000B0E04BF09020CF1080C0B0F04BF09015C
:1025A0000CF1040C8B0F04BF89000CF1020CCB0F53
:1025B00004BF49000CF1010CCCF12003A0EB0C008E
:1025C00022FA03F302FA0CF241EA030100F10100DE
:1025D000704720F07F4C80EA030023F07F47ACEB8C
:1025E000070303F57C5300F0004003F1FF032DE9DE
:1025F00080494FEA154B09B44FEA144325EA0B4EC4
:1026000024EA03480FF2042606EB132749083E7814
:102610005FEA320203FB0667C7F5000707FB06F611
:102620004FEA54374FEAD64606F1020607FB066C1E
:10263000CCF1005C4FEA1C472CEA074C07FB06F480
:102640000CFB06F504EB15464FEA961634BF002046
:102650004FF000404FEAD13706FB07FC4FEA1C4C15
:102660000CFB0BF7D21B03FB0CF761EB07010CFB18
:102670000EF7B0EB074072EB17420CFB08F734BFC4
:10268000A2EB0742B2EB074261EB17414FEA0C4461
:102690004FEA910706FB07FC4FEA1C4C0CFB0BF7BB
:1026A000B0EBC74072EB573203FB0CF734BFA2EB21
:1026B000C742B2EBC74261EB57310CFB0EF7B0EBF0
:1026C000C70072EB57720CFB08F734BFA2EBC702CE
:1026D000B2EBC70261EB5771039F4FEA816141EA98
:1026E000921104EBCC044FEAD1374FEA826206FB29
:1026F00007FC42EA90124FEA80604FEA1C4C0CFB48
:102700000BF7D21B03FB0CF761EB07010CFB0EF779
:10271000B0EB074072EB17420CFB08F734BFA2EB9B
:102720000742B2EB074261EB17414FEA8C554FEA83
:10273000910704EB9C2406FB07FC4FEA1C4C0CFBA6
:102740000BF7B0EBC74072EB573203FB0CF734BF0B
:10275000A2EBC742B2EBC74261EB57310CFB0EF75D
:10276000B0EBC70072EB57720CFB08F734BFA2EB5B
:10277000C702B2EBC70261EB577115EB4C254FEA6C
:10278000816141EA92114FEA82624FEAD13742EA0F
:10279000901206FB07FC44F100044FEA80604FEA08
:1027A0001C4C0CFB0BF7D21B03FB0CF761EB070176
:1027B0000CFB0EF7B0EB074072EB17420CFB08F76F
:1027C00034BFA2EB0742B2EB074261EB174115EBB6
:1027D0001C154FEA813141EA92414FEA823242EAC6
:1027E00090424FEA80304FEA0C7644F1000448EA08
:1027F00003434EEA0B484FF0000EB2EB080C71EBAE
:10280000030724BF624639464EEB0E0E4FF0000B15
:102810000018524149414BEB0B0BB2EB080C71EB2A
:1028200003077BF1000B24BF624639464EEB0E0EC8
:102830004FF0000B0018524149414BEB0B0BB2EB30
:10284000080C71EB03077BF1000B24BF624639468D
:102850004EEB0E0E51EA020718BF46F0010616EBCA
:102860000E7655F1000254F1000103D5BDE889014F
:10287000BDE80088BDE88901BDE80048B6195241AD
:1028800041EB0101A3F10103704780807F7E7D7CD5
:102890007B7A7978777676757473727171706F6EF2
:1028A0006E6D6C6C6B6A6A6968686766666564649D
:1028B000636362616160605F5F5E5E5D5D5C5C5B27
:1028C0005B5A5A5959585857575656555555545496
:1028D000535352525251515050504F4F4F4E4E4DF4
:1028E0004D4D4C4C4C4B4B4B4A4A4A494949484840
:1028F0004847474747464646454545444444444380
:1029000043434342424242414141000046EA0646B7
:10291000A3F570534FEA164646EA42564FEAD222D2
:1029200042EA415210B54FEAD121A3F1010300F070
:102930002FF820F0004000F1020C00F0004701EBFE
:1029400000501146BCF5006F40EA070000D210BDF0
:10295000BAF1000F0AD01CB503B44FF004004FF0D9
:1029600004014FF000000FBCBDE810404FF0000123
:10297000BBF1010FB9BF04484FF0FF3103480021FC
:1029800040EA070010BD00BFFFFFEF7F0000F07FAF
:10299000002B9C4630D477002BD01CB54FEA37076C
:1029A00003B44FF010004FF01001BAF1000F06D041
:1029B000BCF1000FDCBF40F0080040F008014FF010
:1029C00000000FBCBDE810400BF1010BBBF1010F83
:1029D00008BF5FEA170722BF12F1010211F10101DE
:1029E0004FF0004143F1000300F0004043EA0000D3
:1029F0007047F9D35708D0E746EA064613F1400F6F
:102A00004FEA16461FDD13F1200FDFBF16430A46BB
:102A1000002120335B42BED0C3F1200746EA0646C0
:102A200002FA07F74FEA164646EA0706C3F12007FF
:102A300022FA03F201FA07F721FA03F14FF000033B
:102A400042EA0702A7E746EA020646EA06464FEAD6
:102A5000164646EA0106BCBF46EA0646360C4FF06B
:102A600000034FF000024FF0000194E72DE9804C85
:102A70009A46934670B491E8380007C831EA400C92
:102A800048BF34EA430C03D5FFF7A3FDFFF780FFEF
:102A9000F0BCBDE8008C2DE9804C9A46934670B49A
:102AA00091E8380007C831EA400C48BF34EA430CCB
:102AB00003D5FFF78EFDFFF729FFF0BCBDE8008CC2
:102AC0002DE9804C9A46934670B491E8380007C8C7
:102AD00010F0804F08BF13F0804F03D100F01AF8B8
:102AE000FFF756FFF0BCBDE8008C2DE9804C9A46FC
:102AF000934670B491E8380007C810F0804F08BFC3
:102B000013F0804F03D100F005F8FFF7FFFEF0BC93
:102B1000BDE8008C20F07F4780EA030023F07F4C63
:102B200007EB0C03A3F57C5300F00040A3F1FE0378
:102B300092F0000F00F0B38095F0000F00F0778066
:102B40002DE901494FEA11404FEA144621EA0048B5
:102B500000FB06FC24EA064708FB06F607FB08F81C
:102B600000FB07F718EB06484CEB164C4FEA124BEC
:102B700018EB07484FEA15464CEB174022EA0B4E7C
:102B80000BFB06FC25EA06470EFB06F607FB0EFECE
:102B90000BFB07F71EEB064E4CEB164C4FF00006F6
:102BA0001EEB074E4CEB174B18EB0B0840F10000E7
:102BB00018EB0E0B58EB000840F100008F1A4FF095
:102BC00000013CBFC943661B14BFB5EB040C0021D8
:102BD0003CBFC943F61B4FEA17444EEA8E0E27EA64
:102BE00004454FEA1C4704FB07622CEA074C05FB2F
:102BF00007F70CFB05F604FB0CFC16EB074642EB53
:102C0000174216EB0C4642EB1C421BEB060658EB38
:102C10000202414146EA9E0601D5BDE80189B61986
:102C2000524141EB0101A3F10103BDE801894FEAE3
:102C300014454FEA114724EA054621EA074C05FBF3
:102C400007F406FB07F70CFB06F105FB0CFC11EB88
:102C5000074144EB17444FEA124711EB0C4144EB98
:102C60001C4422EA074C05FB07F206FB07F70CFBA6
:102C700006F605FB0CFC16EB074642EB174216EB7B
:102C80000C4642EB1C456A1854F1000148BF7047DE
:102C9000B619524141EB0101A3F10103704795F0D0
:102CA000000F37D04FEA11424FEA144721EA02469B
:102CB00024EA074C02FB07F106FB07F70CFB06F4BE
:102CC00002FB0CFC14EB074441EB17414FEA15479C
:102CD00014EB0C4441EB1C4125EA074C02FB07F5C1
:102CE00006FB07F70CFB06F602FB0CFC16EB07468F
:102CF00045EB174516EB0C4645EB1C42121951F1FA
:102D0000000148BF7047B619524141EB0101A3F1E0
:102D1000010370474FEA14454FEA114724EA05467C
:102D200021EA074C05FB07F106FB07F70CFB06F24F
:102D30004FF0000605FB0CFC12EB074241EB17417C
:102D400012EB0C4251EB1C4148BF7047921841EB0B
:102D50000101A3F10103704710B504464FF48072DE
:102D600021460248FDF72DFE10BD0000C8110124C8
:102D700000BFFEE700B52DED108B89B0B0EE409B93
:102D8000B0EE41ABB0EE42BBB0EE43CB3CEE4A0BF3
:102D90009FED371B20EE010B9FED371B80EE012BC3
:102DA000B0EE42DB9FED320B29EE000B9FED321BA4
:102DB00080EE012B8DED062B9FED2D0B2BEE000BE6
:102DC0009FED2D1B80EE012B8DED042BB0EE4D0BF6
:102DD0000CF02AFBB0EE40EB9DED040B0CF0ACF9CF
:102DE0002EEE000B8DED020B9DED060B0CF0A4F901
:102DF000B0EE40EB9DED040B0CF016FB2EEE00EB5D
:102E00009DED060B0CF010FBB0EE40FB9DED040BAE
:102E10000CF092F92FEE00FBB0EE4D0B0CF08CF99C
:102E20000FEE40EB8DED00EB9DED001B9DED020BD9
:102E30000CF082F8B0EE408B9FED0F0B28EE000BEC
:102E40009FED0B1B80EE012BB0EE428BB5EEC08BDD
:102E5000F1EE10FA05D29FED0A0B38EE000BB0EE42
:102E6000408BB7EEC80B09B0BDEC108B00BD000065
:102E700000000060FB210940000000000080664067
:102E8000000000000080764010B52DED0E8BB0EEF6
:102E9000408BB0EE419BB0EE42ABB0EE43BB3AEE9E
:102EA000480B9FED151B20EE010BB0EE40DB9FEDB4
:102EB000140B28EE000B9FED141B80EE012BB0EEDF
:102EC00042EBB0EE4E0B0CF037F93BEE491B9FED99
:102ED0000A2B21EE021B20EE010BB0EE40CB2DEEB3
:102EE0000D1B0CEE0C1BB0EE410B0CF0BFFBB7EE54
:102EF000C00BBDEC0E8B10BD00000000802DFB4010
:102F000000000060FB2109400000000000806640D6
:102F100010B5024801F0D0FA10BD00002C080024C2
:102F200010B5024801F0C8FA10BD0000A408002442
:102F300010B5024801F0C0FA10BD00003C070024A3
:102F400010B5024801F0B8FA10BD0000B407002423
:102F500010B5024801F0B0FA10BD00001C090024B1
:102F60000146374A0868904249D0354A1832086805
:102F7000904244D0324A3032086890423FD0304AC2
:102F80004832086890423AD02D4A60320868904230
:102F900035D02B4A78320868904230D0284A903297
:102FA000086890422BD0264AA8320868904226D062
:102FB000244A0868904222D0224A18320868904277
:102FC0001DD0204A30320868904218D01D4A48323D
:102FD0000868904213D01B4A6032086890420ED0B5
:102FE000184A78320868904209D0164A9032086828
:102FF000904204D0134AA8320868904201D10120BF
:1030000000E00020B0B10A78103A1823B2FBF3F0C8
:1030100000F007020C4B9A5CCA65032805D90A68C0
:103020006FF30902121D8A6503E00A686FF3090253
:103030008A6503E0086820F0FF008865886D7047A6
:10304000100002401004024020BD040810B50268C0
:103050002B4C0368A34222D0294C14340368A342AA
:103060001DD0274C28340368A34218D0244C3C348C
:103070000368A34213D0224C50340368A3420ED0FD
:103080001F4C64340368A34209D01D4C7834036894
:10309000A34204D01A4C8C340368A34201D101230B
:1030A00000E000238BB10378083B1424B3FBF4F158
:1030B000144B03EB81030366124B8033436601F02C
:1030C0001F040123A340836618E00378103B1824F3
:1030D000B3FBF4F10C4B9A4204D80B4BA83B9A4239
:1030E00000D30831094B03EB81030366074B8033A0
:1030F000436601F01F040123A340836610BD000056
:103100000854025800580258B8040240000802400F
:103110000179A9B3082940D8204B02689A4222D0ED
:103120001E4B143302689A421DD01C4B2833026890
:103130009A4218D0194B3C3302689A4213D0174B6D
:10314000503302689A420ED0144B643302689A429C
:1031500009D0124B783302689A4204D00F4B8C335B
:1031600002689A4201D1012200E000224AB14A1EBF
:103170000B4B03EB8202C266094A4032026708E049
:103180000BE04A1E074B03EB8202C266054A40323F
:1031900002674A1E01239340436770470854025850
:1031A0000059025800090240014600208A69D2B93C
:1031B0008A6A32B1012A0DD0022A03D0032A10D123
:1031C0000EE000BFCA6A02F08072B2F1807F00D1C7
:1031D000012007E0CA6AB2F1C07F00D1012001E0FE
:1031E00000E000BF36E08A69B2F5005F1BD18A6A51
:1031F00032B1012A07D0022A03D0032A11D10AE0F2
:1032000000BF01200EE0CA6A02F08072B2F1807F36
:1032100000D1012006E0CA6AB2F1C07F00D10120CE
:1032200000E000BF16E08A6A32B1012A05D0022A06
:1032300004D0032A0CD103E000BF00BF012008E046
:10324000CA6A02F08072B2F1807F00D1012000E0F2
:1032500000BF00BF70470000F0B5856D846D984FCA
:103260000668BE4270D0964F18370668BE426BD0D3
:10327000934F30370668BE4266D0914F4837066894
:10328000BE4261D08E4F60370668BE425CD08C4F24
:1032900078370668BE4257D0894F90370668BE42DD
:1032A00052D0874FA8370668BE424DD0854F06687A
:1032B000BE4249D0834F18370668BE4244D0814F82
:1032C00030370668BE423FD07E4F48370668BE4260
:1032D0003AD07C4F60370668BE4235D0794F783798
:1032E0000668BE4230D0774F90370668BE422BD07A
:1032F000744FA8370668BE4226D0734F0668BE4298
:1033000022D0714F14370668BE421DD06E4F283749
:103310000668BE4218D06C4F3C370668BE4213D0D8
:10332000694F50370668BE420ED0674F6437066853
:10333000BE4209D0644F78370668BE4204D0624F5F
:103340008C370668BE4201D1012600E000263EB15E
:10335000D0E919767E60C66E16B1D0E91C767E6023
:10336000574F0668BE4249D0554F18370668BE42CF
:1033700044D0534F30370668BE423FD0504F483795
:103380000668BE423AD04E4F60370668BE4235D01E
:103390004B4F78370668BE4230D0494F90370668A9
:1033A000BE422BD0464FA8370668BE4226D0454FB6
:1033B0000668BE4222D0434F18370668BE421DD071
:1033C000404F30370668BE4218D03E4F4837066837
:1033D000BE4213D03B4F60370668BE420ED0394F15
:1033E00078370668BE4209D0364F90370668BE422D
:1033F00004D0344FA8370668BE4201D1012600E050
:103400000026DEB190F85C6006F01F073F26BE4044
:10341000AE600668366826F4802607683E60066857
:1034200073608668402E04D10668B2600668F16059
:1034300044E00668B1600668F2603FE0224F06682B
:10344000BE4222D0204F14370668BE421DD01E4F08
:1034500028370668BE4218D01B4F3C370668BE426C
:1034600013D0194F50370668BE420ED0164F64373E
:103470000668BE4209D0144F78370668BE4204D0B1
:10348000114F8C370668BE4201D1012600E00026AC
:10349000A6B190F85C6006F01F070126BE4066608A
:1034A000066873608668402E04D10668B2600668BC
:1034B000F16003E00668B1600668F260F0BD0000EC
:1034C00010000240100402400854025810B504468F
:1034D0002078242800D010BDE078472808D1207932
:1034E000472805D16079412802D1E01D00F026F976
:1034F000E078542808D12079482805D160795328EC
:1035000002D1E01D00F0F4F9E078482808D12079D4
:10351000502805D16079522802D1E01D00F08AF9C7
:1035200000BFD8E77047000010B500210F4805F034
:10353000A7FE04210D4805F0A3FE00210C4805F06C
:103540009FFE04210A4805F09BFE0021094805F072
:1035500097FE0421074805F093FE0021064805F078
:103560008FFE0421044805F08BFE10BD04040024E6
:10357000500400249C040024E8040024014651B9AE
:103580001A480068406A02B20020184B1B68586253
:10359000504200B2704701290AD115480068406ABC
:1035A00002B20020124B1B685862504200B2F1E791
:1035B00002290AD10F480068406A02B200200D4B70
:1035C0001B685862504200B2E4E703290AD10A4856
:1035D0000068406A02B20020074B1B6858625042E4
:1035E00000B2D7E700BF0020D4E7000004040024A5
:1035F000500400249C040024E804002472B600BF98
:10360000FEE702460868B0B9D1E901031843CB6868
:1036100018430B6918434B6918438B691843CB69EE
:1036200018430B6A18434B6A184313686FF30E0371
:103630001843106019E0D1E9070318434B6A184397
:10364000136823F4F84318431060D1E901031843C9
:10365000CB6818430B6918434B6918438B691843AF
:1036600053686FF30E031843506000207047024602
:10367000506943F6FE73984340EA410050610020D0
:10368000704710B50346D1E9000420438C68641EDE
:1036900040EA4410CC6840EA44201C696FF31504EA
:1036A00020431861002010BD30B50346FAB9086800
:1036B000401E4C68641E40EA04148868401E44EAB8
:1036C0000024C868401E44EA0034088A401E44EAC8
:1036D0000044888A401E44EA0054087E401E44EAA2
:1036E00000609C6804F070442043986022E0C86841
:1036F000401E0403888A401E44EA00509C680E4D18
:103700002C40204398600868401E4C68641E40EAC4
:1037100004148868401E44EA0024088A401E44EAD3
:103720000044087E401E44EA0060DC6804F07044F7
:103730002043D860002030BDFF0F0FFF30B591B09F
:103740000446002515E001A840F8254004E014F8DF
:10375000011B09B911B030BD20780D2D01D12A21EE
:1037600000E02C218842F2D1002004F8010B681CF3
:10377000C5B20E2DE7DB01A840F8254001980BF0FB
:10378000BFFC2B4880ED000B02980BF0B9FC2848D9
:1037900080ED020B039800782549087404980BF01B
:1037A000AFFC234880ED060B05980078204981F88E
:1037B000200006980078303881F821000798FDF73E
:1037C0006BF81B4981F8220008980BF099FCB7EEC2
:1037D000C00B174880ED090A09980BF091FCB7EE71
:1037E000C00B134880ED0A0A2C300A99FDF761F8E6
:1037F0000B980BF085FCB7EEC00B0D4880ED0D0A61
:1038000038300C99FDF755F80D980BF079FCB7EEB0
:10381000C00B074880ED100A44300E99FDF749F8B7
:1038200003484C300F99FDF744F800BF92E70000C1
:103830006011012430B591B00446002515E001A8BF
:1038400040F8254004E014F8011B09B911B030BD5F
:103850002078072D01D12A2100E02C218842F2D1C5
:10386000002004F8010B681CC5B2082DE7DB01A895
:1038700040F8254001980BF043FC1C4880ED000BFC
:1038800002980BF03DFCB7EEC00B184880ED020A21
:1038900003980BF035FCB7EEC00B144880ED030A1B
:1038A00004980BF02DFCB7EEC00B104880ED040A15
:1038B0000598007830380D4908750698FCF7ECFF3C
:1038C0000A49487507980BF01BFCB7EEC00B074878
:1038D00080ED060A1C300899FCF7EBFF0348243002
:1038E0000999FCF7E6FF00BFB0E70000C812012409
:1038F00030B589B00446002515E001A840F8254000
:1039000004E014F8011B09B909B030BD2078012D7D
:1039100001D12A2100E02C218842F2D1002004F8B4
:10392000010B681CC5B2022DE7DB01A840F8254059
:1039300001980BF0E5FBB7EEC00B094880ED000ADB
:1039400002980BF0DDFBBCEEC00B10EE100A044930
:1039500008710348401D0399FCF7ABFF00BFD3E794
:10396000B811012410B5012438E04FF4FA7001F0C9
:103970009FFF2046611CCCB20C282ED2DFE800F05D
:103980002D06070B0F13171B1F23272B25E017A04E
:1039900000F0B4F821E017A000F0B0F81DE01AA084
:1039A00000F0ACF819E01EA000F0A8F815E01FA088
:1039B00000F0A4F811E020A000F0A0F80DE021A094
:1039C00000F09CF809E022A000F098F805E00EA0B5
:1039D00000F094F801E0002400BF00BF002CC4D127
:1039E0004FF4FA7001F064FF10BD0000756E6C6F4B
:1039F000670D0A006D6F64652062617365207469EC
:103A00006D652036300D0A006D6F646520726F762B
:103A10006572206175746F6D6F746976650D0A004B
:103A2000677067676120310D0A0000006770746875
:103A30007320310D0A0000006167726963622031F2
:103A40000D0A0000677068707220310D0A000000D6
:103A500073617665636F6E6669670D0A000000002A
:103A60002DE9F04105460E460EB9BDE8F08100246F
:103A700000271DE0285DAA2818D1601C285C442876
:103A800014D1A01C285CB52810D1301BB0F5007FE4
:103A900002DD4FF4007000E0301B02462919164881
:103AA000FCF74AFF1448FFF757F904E0601C84B2A2
:103AB000B01EA042DEDC00BF002418E0285D2428F0
:103AC00000D12F19002C10DD601E285C0D280CD1B0
:103AD000285D0A2809D147B10021601E2954002021
:103AE00028553846FFF7F2FC0027601C84B2B44228
:103AF000E4DB00BFB9E70000F812012470B504460A
:103B00002046FCF7FAFE85B2C8232A462146024821
:103B100006F0DBFD70BD0000A80600242DE9F04191
:103B200007460D4616464FF0010809F071FC38466D
:103B300000F068F8E0B909F06BFCBB2009F0DAFC92
:103B4000012815D100240DE0681EA04204D10020F8
:103B500009F030FC305503E0012009F02BFC305512
:103B6000601CC4B2AC42EFDB09F074FC4FF00008FB
:103B700009F070FC4046BDE8F081000010B509F086
:103B800003FD00224FF40061114802F083F8012286
:103B900091020F4802F07EF842F2107009F058FBD3
:103BA00000224FF480610A4802F074F8094809F0D5
:103BB0004FFB01229102064802F06CF8064809F01A
:103BC00047FB09F0CBFC44F6206009F041FB10BD37
:103BD00000200258F04902003057050070B5064633
:103BE0000C4609F015FC304600F00CF828B92046C8
:103BF00009F080FC012800D0012509F02BFC0025EC
:103C0000284670BD70B5044609F002FCBA2009F0E0
:103C100071FC01280AD1201209F06CFC012805D1A1
:103C2000E0B209F067FC012800D0012500252846F4
:103C300070BD0000004870476011012400487047C3
:103C4000C81201242DE9F041044602F02FF8804605
:103C500014B90120BDE8F08194F83500022808D09D
:103C60008020606500BF002084F8340000BF012080
:103C7000F0E7FE492068884249D0FC4918312068A5
:103C8000884244D0F9493031206888423FD0F74912
:103C90004831206888423AD0F4496031206888422F
:103CA00035D0F24978312068884230D0EF499031E0
:103CB000206888422BD0ED49A8312068884226D060
:103CC000EB492068884222D0E949183120688842AF
:103CD0001DD0E74930312068884218D0E449483186
:103CE0002068884213D0E2496031206888420ED0B3
:103CF000DF4978312068884209D0DD499031206859
:103D0000884204D0DA49A8312068884201D10120D4
:103D100000E0002068B12068006820F01E002168E3
:103D200008602068406920F08000216848612568AB
:103D300006E02068006820F00E0021680860256811
:103D4000CA492068884270D0C84918312068884222
:103D50006BD0C64930312068884266D0C3494831AB
:103D60002068884261D0C1496031206888425CD0B7
:103D7000BE4978312068884257D0BC4990312068CC
:103D8000884252D0B949A831206888424DD0B849FC
:103D90002068884249D0B64918312068884244D00A
:103DA000B3493031206888423FD0B149483120685A
:103DB00088423AD0AE4960312068884235D0AC495B
:103DC00078312068884230D0A949903120688842F3
:103DD0002BD0A749A8312068884226D0A549206861
:103DE000884222D0A3491431206888421DD0A149BD
:103DF00028312068884218D09E493C31206888428A
:103E000013D09C495031206888420ED099496431C2
:103E10002068884209D0974978312068884204D0C8
:103E200094498C312068884201D1012000E00020B3
:103E300028B1206E006820F48070216E08608B49E4
:103E40002068884249D0894918312068884244D086
:103E500086493031206888423FD084494831206803
:103E600088423AD0814960312068884235D07F4904
:103E700078312068884230D07C499031206888426F
:103E80002BD07A49A8312068884226D0784920680A
:103E9000884222D076491831206888421DD0744962
:103EA00030312068884218D07149483120688842F2
:103EB00013D06F496031206888420ED06C49783148
:103EC0002068884209D06A4990312068884204D02D
:103ED0006749A8312068884206D12068006820F030
:103EE00001002168086005E02068006820F00100FA
:103EF0002168086011E001F0D9FEA0EB0800052858
:103F00000BD920206065032084F8350000BF002015
:103F100084F8340000BF01209CE6286800F001000E
:103F20000028E8D151492068884249D04F491831CA
:103F30002068884244D04D493031206888423FD0C3
:103F40004A494831206888423AD04849603120685F
:103F5000884235D0454978312068884230D043497D
:103F60009031206888422BD04049A831206888428F
:103F700026D03F492068884222D03D491831206828
:103F800088421DD03A4930312068884218D03849DB
:103F900048312068884213D0354960312068884212
:103FA0000ED0334978312068884209D030499031A9
:103FB0002068884204D02E49A8312068884201D167
:103FC000012000E0002040B1A66D94F85C0000F0F4
:103FD0001F013F208840B06007E0A76D94F85C00A7
:103FE00000F01F0101208840786020492068884245
:103FF00076D01E4918312068884271D01B49303173
:10400000206888426CD0194948312068884267D0BE
:10401000164960312068884262D01449783120689E
:1040200088425DD0114990312068884258D00F49AC
:10403000A8312068884253D00D49206888424FD06B
:104040000B491831206888424AD00949303120682C
:10405000884245D0064948312068884240D004490A
:104060006031206888423BD0014905E010000240E1
:1040700010040240085402587831206888422FD03A
:104080002549206888422BD023491831206888426E
:1040900026D022492068884222D020491431206845
:1040A00088421DD01D4928312068884218D01B49FC
:1040B0003C312068884213D018495031206888422A
:1040C0000ED0164964312068884209D013497831EE
:1040D0002068884204D011498C312068884201D17F
:1040E000012000E0002068B1D4E919104860E06EBA
:1040F00040B1E06E006820F48070E16E0860D4E9A1
:104100001C104860012084F8350000BF002084F8AE
:10411000340000BF00BF9DE5A004024008540258CF
:1041200070B504460CB9012070BD94F83500022822
:1041300003D0802060650120F6E7DC4920688842D2
:1041400049D0DA4918312068884244D0D749303103
:10415000206888423FD0D5494831206888423AD00B
:10416000D24960312068884235D0D0497831206802
:10417000884230D0CD499031206888422BD0CB493D
:10418000A8312068884226D0C9492068884222D0B8
:10419000C7491831206888421DD0C5493031206890
:1041A000884218D0C24948312068884213D0C0499B
:1041B0006031206888420ED0BD497831206888423D
:1041C00009D0BB4990312068884204D0B849A83151
:1041D0002068884201D1012000E00020F0B30420D3
:1041E00084F83500B149206888424BD0AF49183176
:1041F0002068884246D0AD4930312068884241D09D
:10420000AA494831206888423CD0A84960312068DA
:10421000884237D0A54978312068884232D0A349F6
:104220009031206888422DD0A049A831206888426A
:1042300028D09F492068884224D09D4918312068A1
:1042400088421FD09A493031206888421AD0984954
:1042500048312068884215D0954900E020E060315F
:10426000206888420ED0924978312068884209D06F
:104270008F4990312068884204D08D49A831206848
:10428000884206D12068006820F00100216808609B
:1042900009E12068006820F001002168086002E15F
:1042A0002068006820F00E00216808607F492068BF
:1042B000884249D07D4918312068884244D07B49E2
:1042C0003031206888423FD07849483120688842A0
:1042D0003AD0764960312068884235D073497831C8
:1042E0002068884230D071499031206888422BD0B4
:1042F0006E49A8312068884226D06D4920688842DE
:1043000022D06B491831206888421DD0684930316D
:104310002068884218D0664948312068884213D006
:1043200063496031206888420ED061497831206845
:10433000884209D05E4990312068884204D05C49A7
:10434000A8312068884206D12068006820F001006A
:104350002168086005E02068006820F001002168FD
:10436000086052492068884270D05049183120684E
:1043700088426BD04D4930312068884266D04B4925
:1043800048312068884261D04849603120688842BD
:104390005CD0464978312068884257D043499031F3
:1043A0002068884252D04149A831206888424DD0C7
:1043B0003F492068884249D03D49183120688842E9
:1043C00044D03B493031206888423FD03849483199
:1043D000206888423AD0364960312068884235D01A
:1043E000334978312068884230D031499031206893
:1043F00088422BD02E49A8312068884226D02D49EA
:104400002068884222D02B491431206888421DD070
:10441000284928312068884218D026493C31206834
:10442000884213D023495031206888420ED0214958
:1044300064312068884209D01E497831206888425A
:1044400004D01C498C312068884201D1012000E051
:104450000020D8B1206E006820F48070216E0860C2
:10446000A56D94F85C0000F01F0101208840686091
:10447000D4E919104860E06E40B1E06E006820F4A5
:104480008070E16E0860D4E91C104860012084F857
:10449000350000BF002084F8340000BF206D10B14B
:1044A0002046216D884700203EE6000010000240B3
:1044B00010040240085402582DE9F84F0446002029
:1044C0000090FE4800684FF41651B0FBF1FAA66D5B
:1044D000D4F858803768D8F80090F94920688842A5
:1044E00049D0F74918312068884244D0F449303126
:1044F000206888423FD0F2494831206888423AD04B
:10450000EF4960312068884235D0ED497831206824
:10451000884230D0EA499031206888422BD0E8495F
:10452000A8312068884226D0E6492068884222D0F7
:10453000E4491831206888421DD0E24930312068B2
:10454000884218D0DF4948312068884213D0DD49BD
:104550006031206888420ED0DA497831206888427C
:1045600009D0D84990312068884204D0D549A83173
:104570002068884201D1012000E0002000287DD081
:1045800094F85C0000F01F010820884038400028A3
:1045900068D0CB492068884249D0C9491831206881
:1045A000884244D0C6493031206888423FD0C4494F
:1045B0004831206888423AD0C14960312068884239
:1045C00035D0BF4978312068884230D0BC4990311D
:1045D000206888422BD0BA49A8312068884226D06A
:1045E000B8492068884222D0B649183120688842EC
:1045F0001DD0B44930312068884218D0B1494831C3
:104600002068884213D0AF496031206888420ED0BC
:10461000AC4978312068884209D0AA499031206895
:10462000884204D0A749A8312068884204D1206874
:10463000006800F0040003E02068006800F0080053
:1046400080B12068006820F004002168086094F8B8
:104650005C0000F01F0108208840B060606D40F0F1
:104660000100606594F85C0000F01F0101208840A3
:104670003840E8B392492068884200E0B7E24BD066
:104680008F4918312068884246D08D4930312068E2
:10469000884241D08A494831206888423CD08849C4
:1046A00060312068884237D0854978312068884257
:1046B00032D083499031206888422DD08049A8317A
:1046C0002068884228D07F492068884224D07D49CC
:1046D0001831206888421FD07A49303120688842DA
:1046E0001AD0784948312068884215D0754900E0D1
:1046F00026E06031206888420ED072497831206807
:10470000884209D06F4990312068884204D06D49B1
:10471000A8312068884204D12068406900F08000F8
:1047200002E020680068002050B194F85C0000F0BE
:104730001F0101208840B060606D40F0020060659C
:1047400094F85C0000F01F01042088403840E8B372
:104750005B49206888424BD059491831206888420B
:1047600046D0574930312068884241D054494831B9
:10477000206888423CD0524960312068884237D056
:104780004F4978312068884232D04D4990312068B5
:1047900088422DD04A49A8312068884228D049490A
:1047A0002068884224D047491831206888421FD0A9
:1047B00044493031206888421AD042494831206843
:1047C000884215D03F496031206800E024E08842EB
:1047D0000ED03C4978312068884209D0394990315F
:1047E0002068884204D03749A8312068884204D123
:1047F0002068006800F0020002E0206800680020E5
:1048000050B194F85C0000F01F0104208840B060B3
:10481000606D40F00400606594F85C0000F01F01DA
:10482000102088403840E8B325492068884251D09C
:1048300023491831206888424CD021493031206802
:10484000884247D01E4948312068884242D01C49DE
:104850006031206888423DD019497831206888420B
:1048600038D0174990312068884233D01449A83194
:10487000206888422ED01349206888422AD01149E6
:1048800018312068884225D00E493031206888428E
:1048900020D00C494831206888421BD0094960313A
:1048A000206800E04DE0884214D006497831206845
:1048B00088420FD003499031206805E09800002419
:1048C0001000024010040240884203D0FE492068D4
:1048D000884204D12068006800F0080003E02068E6
:1048E000006800F0040060B394F85C0000F01F0161
:1048F00010208840B0602068006800F4802080B1FB
:104900002068006800F4002028B9206CC8B1204657
:10491000216C884715E0A06C98B12046A16C8847AF
:104920000FE02068006800F4807028B920680068F3
:1049300020F0080021680860206C10B12046216C2E
:10494000884794F85C0000F01F0120208840384020
:1049500000287DD0DD492068884249D0DB491831E4
:104960002068884244D0D9493031206888423FD0FD
:10497000D6494831206888423AD0D449603120680D
:10498000884235D0D14978312068884230D0CF492B
:104990009031206888422BD0CC49A83120688842C9
:1049A00026D0C949A8392068884221D0C649903903
:1049B000206888421CD0C44978392068884217D0C2
:1049C000C14960392068884212D0BF4948392068FF
:1049D00088420DD0BC4930392068884208D0BA4995
:1049E00018392068884203D0B7492068884204D12A
:1049F0002068006800F0100003E02068006800F004
:104A0000020028B394F85C0000F01F0120208840C9
:104A1000B06094F8350004282DD12068006820F09B
:104A20001600216808602068406920F08000216835
:104A30004861206C08B9A06C28B12068006820F09B
:104A400008002168086094F85C0000F01F0100E095
:104A50003FE03F208840B060012084F8350000BF6F
:104A6000002084F8340000BF206D10B12046216D75
:104A70008847BDE8F88F2068006800F4802080B186
:104A80002068006800F4002028B9606C08B3204654
:104A9000616C88471DE0E06BD8B12046E16B884728
:104AA00017E02068006800F4807068B9206800682A
:104AB00020F0100021680860012084F8350000BF54
:104AC000002084F8340000BFE06B10B12046E16B99
:104AD0008847606D00287AD0606D00F00100E8B36F
:104AE000042084F835007949206888424BD0774902
:104AF00018312068884246D0744930312068884295
:104B000041D072494831206888423CD06F496031B9
:104B10002068884237D06D4978312068884232D089
:104B20006A499031206888422DD06849A8312068B0
:104B3000884228D06449A8392068884223D0624935
:104B40009039206888421ED05F49783920688842B1
:104B500019D05D4960392068884200E040E012D0F9
:104B600059494839206888420DD057493039206862
:104B7000884208D0544918392068884203D05249E5
:104B80002068884206D12068006820F00100216872
:104B9000086005E02068006820F0010021680860D6
:104BA00000BF0098401C0090504500D905E02068E7
:104BB000006800F001000028F3D100BF2068006801
:104BC00000F0010020B1032084F8350003E00DE07F
:104BD000012084F8350000BF002084F8340000BFB5
:104BE000E06C002802D02046E16C8847D9E13849C2
:104BF0002068884222D036491431206888421DD06E
:104C0000334928312068884218D031493C31206826
:104C1000884213D02E495031206888420ED02C494A
:104C200064312068884209D0294978312068884257
:104C300004D027498C312068884201D1012000E04E
:104C400000200028D2D02068056894F85C0000F0AD
:104C50001F010420884000EA0900D8B305F00400D1
:104C6000C0B394F85C0000F01F0104208840C8F82D
:104C7000040005F4004080B105F4803030B9A06C28
:104C80000028B3D02046A16C88478AE1206C002818
:104C9000ACD02046216C884783E105F02000E8BBBA
:104CA0000A492068884253D0084918312068884250
:104CB0004ED0064930312068884249D003494831F6
:104CC0002068884244D006E0B80402401000024048
:104CD000085402584FE0B44960312068884237D008
:104CE000B14978312068884232D0AF49903120688C
:104CF00088422DD0AC49A8312068884228D0AB49E1
:104D00002068884224D0A9491831206888421FD0E1
:104D1000A6493031206888421AD000E025E0A34936
:104D200048312068884213D0A04960312068884209
:104D30000ED09E4978312068884209D09B49903135
:104D40002068884204D09949A8312068884206D159
:104D50002068006820F008002168086005E02068ED
:104D6000006820F0040021680860206C10B3204621
:104D7000216C884715E194F85C0000F01F010220C7
:104D8000884000EA0900E8B305F00200D0B394F8C7
:104D90005C0000F01F0102208840C8F8040005F400
:104DA000004070B105F4803028B9606C10B1204625
:104DB000616C8847F5E0E06BF0B32046E16B884713
:104DC000EFE005F02000C0BB7749206888424ED054
:104DD000754918312068884249D0734930312068BC
:104DE000884244D070494831206888423FD06E499B
:104DF0006031206888423AD06B4978312068884217
:104E000035D000E04EE068499031206888422ED0CD
:104E10006549A8312068884229D0644920688842C1
:104E200025D0624918312068884220D05F4930314E
:104E3000206888421BD001E06EE02DE05B494831DC
:104E40002068884213D059496031206888420ED0CA
:104E5000564978312068884209D0544990312068F9
:104E6000884204D05149A8312068884206D1206880
:104E7000006820F014002168086005E020680068E0
:104E800020F00A0021680860012084F8350000BF86
:104E9000002084F8340000BFE06BE8B32046E16BEB
:104EA00088477EE094F85C0000F01F0108208840ED
:104EB00000EA090080B305F0080068B33A492068A9
:104EC00088424BD0384918312068884246D036494C
:104ED00030312068884241D03349483120688842C7
:104EE0003CD0314960312068884237D02E49783132
:104EF0002068884232D02C499031206888422DD0D9
:104F00002949A8312068884228D028492068884249
:104F100024D02649183100E043E0206888421DD0A3
:104F2000224930312068884218D020494831206811
:104F3000884213D01D496031206888420ED01B4939
:104F400078312068884209D0184990312068884219
:104F500004D01649A8312068884206D1206800682C
:104F600020F01C002168086005E02068006820F03F
:104F70000E002168086094F85C0000F01F01012019
:104F80008840C8F804000120606584F8350000BF3F
:104F9000002084F8340000BFE06C10B12046E16CC2
:104FA000884700BF65E50000100002401004024081
:104FB0002DE9F041044600F079FE804614B9012045
:104FC000BDE8F081FE492068884249D0FC4918318B
:104FD0002068884244D0FA493031206888423FD066
:104FE000F7494831206888423AD0F5496031206855
:104FF000884235D0F24978312068884230D0F04973
:105000009031206888422BD0ED49A8312068884231
:1050100026D0EC492068884222D0EA49183120681D
:1050200088421DD0E74930312068884218D0E549D0
:1050300048312068884213D0E249603120688842B4
:105040000ED0E04978312068884209D0DD4990319E
:105050002068884204D0DB49A8312068884201D109
:10506000012000E00020002873D0606A00B100BF7A
:10507000022084F8350000BF002084F8340000BF0F
:10508000CF492068884249D0CD49183120688842EC
:1050900044D0CB493031206888423FD0C84948319C
:1050A000206888423AD0C64960312068884235D0AD
:1050B000C34978312068884230D0C1499031206896
:1050C00088422BD0BE49A8312068884226D0BD49ED
:1050D0002068884222D0BB491831206888421DD000
:1050E000B84930312068884218D0B6494831206824
:1050F000884213D0B3496031206888420ED0B1494C
:1051000078312068884209D0AE49903120688842C1
:1051100004D0AC49A8312068884206D120680068D4
:1051200020F001002168086005E02068006820F098
:105130000100216808600DE000F0B8FDA0EB080058
:10514000052807D920206065032084F83500012058
:1051500036E76AE02068006800F001000028EBD123
:105160002068056898480540D4E902010843216990
:10517000084361690843A1690843E1690843216A5A
:1051800008430543606A042803D1D4E90B010843AE
:1051900005438E4800686FF30F00B0F1005F1DD328
:1051A0006068292802D360682E2811D960683F28DA
:1051B00002D3606842280BD96068472802D3606830
:1051C000482805D960684F2804D36068522801D860
:1051D000012000E0002008B145F48015206805603A
:1051E0002068456925F00705606A0543606A042860
:1051F0000DD1A06A0543E06A48B12046FDF7D4FF0F
:1052000028B140206065012084F83500D8E6206888
:1052100045612046FDF7A4FE064694F85C0000F0C8
:105220001F013F208840B0609EE0694920688842A5
:1052300022D067491431206888421DD06449283142
:105240002068884218D062493C312068884213D0D7
:105250005F495031206888420ED05D496431206832
:10526000884209D05A4978312068884204D0584988
:105270008C312068884201D1012000E00020E0B399
:1052800053492068884222D051491431206888420D
:105290001DD04F4928312068884218D04C493C31F4
:1052A0002068884213D04A495031206888420ED085
:1052B000474964312068884209D0454978312068DF
:1052C000884204D042498C312068884201D10120B3
:1052D00000E0002000B100BF022084F8350000BFCC
:1052E000002084F8340000BF206805683948054074
:1052F000A068402802D1102106E02EE0A068802896
:1053000001D1C10100E00021E06841EAD00120693B
:1053100041EAD001606941EAD001A06941EAD001C7
:10532000E06941EAD001206A41EA10100543206893
:10533000056027492068401A1421B0FBF1F0800075
:10534000E0652046FDF70CFE074694F85C0000F08F
:105350001F0101208840786006E04020606503203E
:1053600084F8350001202BE61549206888427FD05B
:1053700013491831206888427AD0114930312068A9
:10538000884275D00E4948312068884270D00C4957
:105390006031206888426BD00949783120688842A2
:1053A00066D0074990312068884261D00449A8310D
:1053B000206888425CD003492068884258D00BE0BE
:1053C00010000240100402403F8010FE0010005CFC
:1053D000085402580F00FEFF3B49183120688842EC
:1053E00046D0394930312068884241D03649483169
:1053F000206888423CD0344960312068884237D0E8
:10540000314978312068884232D02F499031206864
:1054100088422DD02C49A8312068884228D02B49B9
:105420002068884224D029491431206888421FD03E
:1054300026492831206888421AD024493C31206806
:10544000884215D0214950312068884210D01F4928
:105450006431206888420BD01C497831206888422A
:1054600006D01A498C312068884200E000E001D162
:10547000012000E0002000B32046FDF7E7FDA06812
:10548000802801D1002060602079216E0860D4E975
:1054900019104860606860B16068082809D8204623
:1054A000FDF736FE0020E16E0860D4E91C1048606C
:1054B00003E00020E066206760670020606501204F
:1054C00084F8350000207BE510040240085402589F
:1054D0002DE9F04104460D4616461F464FF00008E0
:1054E00014B90120BDE8F08100BF94F83400012810
:1054F00001D10220F6E7012084F8340000BF94F8BF
:10550000350001287ED1022084F835000020606536
:10551000E4492068884249D0E2491831206888422D
:1055200044D0E0493031206888423FD0DD494831DD
:10553000206888423AD0DB4960312068884235D003
:10554000D84978312068884230D0D64990312068D7
:1055500088422BD0D349A8312068884226D0D2492E
:105560002068884222D0D0491831206888421DD056
:10557000CD4930312068884218D0CB494831206865
:10558000884213D0C8496031206888420ED0C6498D
:1055900078312068884209D0C34990312068884218
:1055A00004D0C149A8312068884206D1206800682B
:1055B00020F001002168086005E02068006820F004
:1055C0000100216808603B46324629462046FDF727
:1055D00043FEB449206888424BD0B2491831206854
:1055E000884246D0AF4930312068884241D0AD4929
:1055F0004831206888423CD0AA49603120688842FE
:1056000037D000E042E1A74978312068884230D0A5
:10561000A4499031206888422BD0A249A831206843
:10562000884226D0A0492068884222D09E4918315D
:10563000206888421DD09C4930312068884218D0AB
:10564000994948312068884213D0974960312068D1
:1056500088420ED0944978312068884209D0924916
:1056600090312068884204D08F49A8312068884250
:1056700001D1012000E0002080B12068006820F006
:105680001E0040F0160021680860206CB0B1206850
:10569000006840F00800216808600FE0206800689A
:1056A00020F00E0040F00A0021680860206C28B14C
:1056B0002068006840F0040021680860794920688B
:1056C000884270D077491831206888426BD075497C
:1056D00030312068884266D072494831206888425B
:1056E00061D070496031206888425CD06D49783162
:1056F0002068884257D06B4990312068884252D048
:105700006849A831206888424DD06749206888429E
:1057100049D0654918312068884244D06249303107
:10572000206888423FD060494831206888423AD09A
:105730005D4960312068884235D05B497831206806
:10574000884230D058499031206888422BD0564941
:10575000A8312068884226D054492068884222D047
:1057600052491431206888421DD0504928312068A0
:10577000884218D04D493C312068884213D04B49AB
:105780005031206888420ED04849643120688842F0
:1057900009D0464978312068884204D043498C3189
:1057A0002068884201D1012000E0002090B1206EE5
:1057B000006800F4803028B1206E006840F48070EA
:1057C000216E0860E06E28B1E06E006840F48070E1
:1057D000E16E086033492068884249D03149183168
:1057E0002068884244D02F493031206888423FD019
:1057F0002C494831206888423AD02A4960312068D3
:10580000884235D0274978312068884230D02549F0
:105810009031206888422BD02249A83120688842E4
:1058200026D021492068884222D01F49183120689B
:1058300088421DD01C4930312068884218D01A494E
:1058400048312068884213D0174960312068884267
:105850000ED0154978312068884209D0124990311C
:105860002068884204D01049A8312068884206D1B7
:105870002068006840F001002168086010E020689E
:10588000006840F001002168086009E04FF4006002
:10589000606500BF002084F8340000BF4FF00108AD
:1058A00040461FE61000024010040240085402580F
:1058B00070B5044600F0FAF906462546681C10B19A
:1058C00004480078054400BF00F0F0F9801BA842AE
:1058D000FAD370BDA800002400B587B0142102A837
:1058E000FBF7CBF800BF5C48006840F480505A4991
:1058F00008600846006800F48050019000BF00BFB7
:1059000000BF55480C30006840F0040052490C318B
:1059100008600846006800F00400019000BF00BF66
:1059200000BF0846006840F00800086008460068AC
:1059300000F00800019000BF00BF00BF08460068EB
:1059400040F0100008600846006800F01000019068
:1059500000BF00BF00BF0846006840F0200008609C
:105960000846006800F02000019000BF00BF00BFA3
:105970000846006840F0400008600846006800F0F3
:105980004000019000BF00BF00BF0846006840F023
:10599000800008600846006800F08000019000BFA9
:1059A00000BF4FF63F0002900220039000200490B9
:1059B000032005900C20069002A9284800F05AF810
:1059C0000C200290022003900020049003200590F8
:1059D0000C20069002A9224800F04CF848F237103B
:1059E00002900220039000200490032005900C20D8
:1059F000069002A91B4800F03DF84FF68370029014
:105A00000220039000200490032005900C200690B3
:105A100002A9154800F02EF84CF203700290022003
:105A2000039000200490032005900C20069002A90A
:105A30000E4800F01FF80120029002200390002081
:105A40000490032005900C20069002A9084800F05D
:105A500011F807B000BD0000D444025800140258E9
:105A6000001C02580018025800100258000C02587E
:105A700000080258F8B502460B4600216F4DD7E0EA
:105A800001278F401E6806EA0704002C72D01E7999
:105A900006F00306012E04D01E7906F00306022E3E
:105AA00013D190684F000326BE40B0434F00DE681C
:105AB000BE4030439060506801268E40B0431E794E
:105AC000C6F300168E40304350601E7906F0030680
:105AD000032E09D0D0684F000326BE40B0434F00CC
